:100000005EC0E7C177C076C075C074C073C072C0EF
:1000100071C070C06FC06EC06DC06CC06BC06AC074
:1000200069C068C067C066C065C064C063C062C0A4
:1000300061C060C00902220001010080C8090400FB
:100040000001030000000921010100012216000740
:100050000581030800641201100100000008C016A9
:10006000DF050001010200010E03550053004200AC
:100070002D00530057002E036D00690064006400DA
:100080006C00650072006900760065007200300047
:10009000400067006D00610069006C002E00630085
:1000A0006F006D00040309040600FF0901A101159A
:1000B0000026FF00750895010900B20201C0112455
:1000C0001FBECFEFD2E0DEBFCDBF11E0A0E0B1E0B8
:1000D000EAEDF6E002C005900D92A230B107D9F723
:1000E00021E0A2E0B1E001C01D92AA33B207E1F71E
:1000F000D5D2F1C285CFCF93C62F20910F0124FF17
:1001000007C03091100128E823272093100103C075
:100110002AE520930F01DC01E1E1F1E09C2F9E0F25
:100120008D918193892F8E1B1816D4F36C2F81E14A
:1001300091E04BD1CC5FC0930F01CF910895CF9345
:10014000DF9360912001635067FDC4C080911D0161
:10015000CCE0D0E0C81BD109CC5DDE4F80911C0102
:100160008D3209F0A6C0683009F0B2C083EC8093EC
:1001700004018AE580930101109202018881807652
:1001800039F0CE0173D2982F8F3F09F481C087C018
:100190009A8110920D018981811106C010920E0181
:1001A0002DE031E092E06FC0853019F49093210189
:1001B00067C0863009F04EC08B81813041F486E5FE
:1001C00090E090931F0180931E0192E13FC0823026
:1001D00041F484E390E090931F0180931E0192E22A
:1001E00035C08330F1F4911108C084EA90E0909317
:1001F0001F0180931E0194E029C0913041F486E7ED
:1002000090E090931F0180931E019EE21FC09230E8
:10021000E1F488E690E090931F0180931E019EE038
:1002200015C0813241F486E490E090931F018093E1
:100230001E0199E00BC0823241F488EA90E090936D
:100240001F0180931E0196E101C090E080E480933D
:10025000020125C0883069F0893019F49093230198
:100260000FC08A3049F08B3059F48BE48093100131
:1002700007C023E231E002C02DE031E091E003C08D
:100280002DE031E090E030931F0120931E0107C064
:10029000888187FD9E8180E88093020107C08F815D
:1002A000811104C08E81891708F4982F9093000162
:1002B0000FC08091020187FF0BC0CE01C8D18F3FD4
:1002C00021F48EE18093010103C08111109200019D
:1002D000109220018091010184FF48C080910001AB
:1002E0008F3F09F443C0C82F893008F0C8E08C1B49
:1002F000809300019091040188E88927809304018C
:10030000CC2339F180911E0190911F0120910201AF
:1003100026FF0BC0A5E0B1E0FC012C2F280F349183
:100320003D9331962E13FBCF09C0DC01E5E0F1E0EF
:100330002C2F2E0F3D9131932E13FCCF2FEF2C0F2E
:1003400030E02F5F3F4F820F931F90931F018093E8
:100350001E016C2F85E091E038D064E06C0F6C30AA
:1003600019F08FEF809300016093010184E199B14E
:100370009C7031F48150D9F71092210110921B0129
:10038000DF91CF910895E9E6F0E08081826080837B
:10039000E89AEFE0F1E08BE481838AE580830895B9
:1003A000A82FB92F80E090E041E050EA609530E05E
:1003B00009C02D9182279795879510F0842795275E
:1003C000305EC8F36F5FA8F30895EADF8D939D93C5
:1003D0000895CF93CFB7CF93C3954B9BE9F74B9B32
:1003E00009C04B9B07C04B9B05C04B9B03C04B9B5D
:1003F00001C0A3C0DF93C0911D01DD27CC5DDE4F9E
:100400004B9B02C0DF91EBCF2F930F931F9309B14A
:100410002FEF03FB20F94F933F9319B14FEF0127C3
:1004200003FB21F93BE031C04E7F012F19B1216060
:1004300028C0102F4D7F2260000009B129C04B7FDA
:100440002460012F000019B12BC019B1477F28602B
:100450002AC04F7E09B120612CC04F7D19B12062A6
:100460002FC04F7B09B1206432C0422709B14993A4
:100470004FEF0000102713FB20F919B11C70C9F1D0
:10048000297F91F2012703FB21F909B1237F89F22A
:10049000315058F1102713FB22F919B1277E79F258
:1004A000012703FB23F92F7C81F209B1102713FBED
:1004B00024F92F7971F200C019B1012703FB25F946
:1004C0002F7359F200C009B1102713FB26F922300F
:1004D00040F200C019B1012703FB27F9243028F6A8
:1004E0004F77206819B10000F9CF11E01CBB00273D
:1004F00019C03B503195C31BD04011E01CBB088193
:10050000033CF9F00B34E9F020911B011981110F24
:100510001213EDCF4A81441F093641F10D3211F01B
:10052000013E29F7009322013F914F911F910F91B6
:100530002F91DF91CCB3C0FD4FCFCF91CFBFCF91E3
:10054000189520912201222379F310912001112383
:1005500069F534306AF13093200120931C01109129
:100560001D013BE0311B30931D0122C00091200191
:100570000130E4F40AE54F7049F43091010134FD93
:1005800019C000930101C4E0D1E018C030910F01FF
:1005900034FD10C000930F01C0E1D1E00FC02795DA
:1005A000A8F45150A9F4220F0000F9CF4AE503C086
:1005B00042ED01C0432FC4E1D0E032E01AB11C602B
:1005C0005B9A1AB90BB120E41CE05F93012756E057
:1005D0000BB9279520F4515021F4220FF9CF0127B0
:1005E00056E000003B5A0BB9D0F2279528F4515041
:1005F00029F4220F0000F9CF012756E027950BB907
:1006000020F4515021F4220FF9CF012756E029910F
:1006100033230BB921F6037F10912101110FC6512D
:10062000D0400BB911F010931B0111E01CBB086006
:100630001AB1137F402F437F5F9100C000C00BB9F8
:100640001AB94BB971CF509A0895509808956130F6
:1006500059F4FC01808180930301882311F0F3DFBA
:1006600001C0F3DF81E008958FEF0895FC019081D0
:100670009076903289F48181813039F423E031E041
:1006800030931F0120931E01089591E0893009F0F5
:1006900090E0892F8195089580E0089550985898AA
:1006A0009EE088E10FB6F894A895809360000FBE95
:1006B0009093600068DE539A8AEFA895E7EBFBE021
:1006C0003197F1F700C000008150B9F75398789442
:0A06D000A89535DDFDCFF894FFCFAB
:0206DA00FF5AC5
:00000001FF
